S01A0000313232412046696E616C2050726F6A6563742E7372656333
S113000057C0000074C0000072C0000070C000003F
S11300106EC000006CC000006AC0000068C0000030
S113002066C0000064C0000062C0000060C0000040
S11300305EC00000ABC100005AC0000058C0000000
S113004056C0000054C0000052C000000C94550B70
S11300504EC000004CC000004AC0000048C0000070
S113006046C0000044C0000042C0000040C0000080
S11300703EC000003CC000003AC0000038C0000090
S113008036C0000034C0000032C000009102930268
S1130090960299029C029F02A202A502A802B6023D
S11300A01003FE03E704C905AB068D076F08510969
S11300B011241FBECFEFD0E4DEBFCDBF11E0A0E01E
S11300C0B1E0EEE6FBE100E00BBF02C007900D9249
S11300D0AA38B107D9F721E0AAE8B1E001C01D921E
S11300E0AC3AB207E1F70E94640B0C94B50D88CFCB
S11300F080919F01811105C08091A6018093A80180
S113010002C0811103C010929F01089510929F01B3
S113011008958091A901882321F0813009F45FC0FA
S1130120BCC08091A8019FEC980F923008F048C0A1
S113013010920101109200018133F9F480918B0136
S113014090918C01019771F08091950190919601A5
S1130150992344F080919301909194019093960196
S11301608093950181E090E090938C0180938B01C2
S113017090938E0180938D0195C082E38093A801B2
S113018080918B0190918C01029779F08091950177
S113019090919601813D924044F480919301909115
S11301A09401909396018093950182E090E090935E
S11301B08C0180938B0190938E0180938D0172C08A
S11301C081E090E09093010180930001809193017C
S11301D090919401909396018093950163C08091CE
S11301E0A8019FEC980F923008F048C010920101CA
S11301F0109200018133F9F480918B0190918C016C
S1130200019771F08091950190919601992344F0A2
S1130210809193019091940190939601809395011C
S113022081E090E090938C0180938B0190938E01F8
S113023080938D013BC082E38093A80180918B0160
S113024090918C01029779F080919501909196019B
S1130250813D924044F48091930190919401909354
S113026096018093950182E090E090938C018093B5
S11302708B0190938E0180938D0118C081E090E0F2
S113028090930101809300018091930190919401D6
S1130290909396018093950109C0882319F08130C9
S11302A041F404C081E08093A90108951092A9014A
S11302B008951092A9010895FF920F931F93CF936D
S11302C0DF9310928A0180919901882309F458C020
S11302D080E00F2EFBE0FF2EF02D0091A101109184
S11302E0A201E801F89EC00DD11D11244D815E814B
S11302F06F81788589819A81AB81BC8148175907C0
S11303006A077B07B0F08881E985FA85992787FD1C
S113031090950995888380918A01E091A101F091DB
S1130320A201F89EE00DF11D112415821682178298
S1130330108620918A01E091A101F091A201F29E20
S1130340E00DF11D112445815681678170858091EE
S1130350020190910301A0910401B0910501840F61
S1130360951FA61FB71F85839683A783B08781E057
S1130370820F80938A0190919901891708F4ADCF77
S1130380DF91CF911F910F91FF9008951F920F92CB
S11303900FB60F9211240BB60F922F933F934F93E6
S11303A05F936F937F938F939F93AF93BF93EF93D9
S11303B0FF9380919A0190919B01A0919C01B0912F
S11303C09D010197A109B10980939A0190939B0122
S11303D0A0939C01B0939D01892B8A2B8B2B89F4CC
S11303E06BDF8091020190910301A0910401B0910F
S11303F0050180939A0190939B01A0939C01B09373
S11304009D01FF91EF91BF91AF919F918F917F914A
S11304106F915F914F913F912F910F900BBE0F9071
S11304200FBE0F901F9018958BE0809381008DE78D
S113043090E0909389008093880082E080936F001D
S11304401092850010928400809102019091030122
S1130450A0910401B091050180939A0190939B01AE
S1130460A0939C01B0939D018FB780688FBF0895BE
S11304708FEE88B90000309B29C0319B29C0329B84
S113048029C0339B29C08FED88B90000309B26C05A
S1130490319B26C0329B26C0339B26C08FEB88B984
S11304A00000309B23C0319B23C0329B23C0339B6D
S11304B023C08FE788B90000309B20C0319B20C047
S11304C0329B20C0339920C084E4089581E30895C9
S11304D084E3089587E308958AE2089582E3089502
S11304E085E3089588E3089580E3089583E30895F8
S11304F086E3089589E3089583E2089581E40895E5
S113050082E4089583E4089580E0089580919E0133
S113051090E089309105F0F4FC01EA5BFF4F0C9404
S1130520720D12B817C081E082B914C083E082B999
S113053011C082E082B90EC086E082B90BC084E0AB
S113054082B908C08CE082B905C088E082B902C0D3
S113055089E082B980919E0190E08930910508F08C
S113056082C7FC01E15BFF4F0C94720D80918D01F9
S113057090918E019C01215031092230310530F4D3
S11305802091000130910101232B51F0892B09F0B6
S11305906CC78091000190910101019709F065C732
S11305A06091950170919601882777FD8095982F29
S11305B00E94830C20E030E044EB50E40E94E80BFE
S11305C020E030E040E852E40E940F0D0E94500CFD
S11305D070939801609397019B01772314F4215C35
S11305E03F4FB901062E672F000C661F770B000CD6
S11305F0661F771F882777FD8095982F0E94830CAC
S113060020E030E044EB50E40E940F0D0E94500CB7
S1130610709394016093930181E080939E01089507
S113062080918B0190918C0181309105B1F580917D
S113063097019091980199230CF467C020910001CF
S113064030910101232B09F060C001979093980128
S113065080939701BC01992314F4615C7F4F062EAB
S1130660672F000C661F770B000C661F771F882707
S113067077FD8095982F0E94830C20E030E044EBB6
S113068050E40E940F0D0E94500C709394016093EB
S1130690930182E080939E0108950297B1F58091C1
S11306A0970190919801813020E2920774F520918E
S11306B0000130910101232B41F50196909398019B
S11306C080939701BC01992314F4615C7F4F062E3B
S11306D0672F000C661F770B000C661F771F882797
S11306E077FD8095982F0E94830C20E030E044EB46
S11306F050E40E940F0D0E94500C7093940160937B
S1130700930188E080939E010895B2DE8234A9F5B6
S1130710809197019091980199237CF12091000197
S1130720309101012130310541F5019790939801F1
S113073080939701BC01992314F4615C7F4F062ECA
S1130740672F000C661F770B000C661F771F882726
S113075077FD8095982F0E94830C20E030E044EBD5
S113076050E40E940F0D0E94500C7093940160930A
S1130770930182E080939E0108957ADE8334B9F573
S11307808091970190919801813020E292077CF545
S113079020910001309101012130310541F501968C
S11307A09093980180939701BC01992314F4615CA0
S11307B07F4F062E672F000C661F770B000C661FF9
S11307C0771F882777FD8095982F0E94830C20E05F
S11307D030E044EB50E40E940F0D0E94500C7093E3
S11307E094016093930188E080939E010895109290
S11307F08E0110928D0110929E01089580918B01BB
S113080090918C0181309105B1F58091970190917F
S1130810980199230CF466C02091000130910101E4
S1130820232B09F05FC0019790939801809397015F
S1130830BC01992314F4615C7F4F062E672F000CD2
S1130840661F770B000C661F771F882777FD80953E
S1130850982F0E94830C20E030E044EB50E40E9487
S11308600F0D0E94500C709394016093930183E0E8
S113087080939E0108950297A9F580919701909124
S11308809801813020E292076CF5209100013091AB
S11308900101232B39F501969093980180939701D8
S11308A0BC01992314F4615C7F4F062E672F000C62
S11308B0661F770B000C661F771F882777FD8095CE
S11308C0982F0E94830C20E030E044EB50E40E9417
S11308D00F0DE6D7709394016093930181E08093A8
S11308E09E010895C5DD823499F580919701909118
S11308F0980199236CF1209100013091010121307C
S1130900310531F501979093980180939701BC01CB
S1130910992314F4615C7F4F062E672F000C661F29
S1130920770B000C661F771F882777FD8095982F1B
S1130930EAD720E030E044EB50E40E940F0DB0D73A
S1130940709394016093930183E080939E010895D2
S11309508FDD8334A9F580919701909198018130BE
S113096020E292076CF520910001309101012130C1
S1130970310531F501969093980180939701BC015C
S1130980992314F4615C7F4F062E672F000C661FB9
S1130990770B000C661F771F882777FD8095982FAB
S11309A0B2D720E030E044EB50E40E940F0D78D73A
S11309B0709394016093930181E080939E01089564
S11309C010928E0110928D0110929E0108958091D3
S11309D08B0190918C018130910599F5809197015B
S11309E09091980199230CF461C0209100013091F9
S11309F00101232B09F05AC0019790939801809329
S1130A009701BC01992314F4615C7F4F062E672F74
S1130A10000C661F770B000C661F771F882777FD75
S1130A208095982F70D720E030E044EB50E4F7D75E
S1130A3037D7709394016093930184E080939E016F
S1130A400895029799F580919701909198018130CA
S1130A5020E292075CF52091000130910101232BE3
S1130A6029F501969093980180939701BC019923ED
S1130A7014F4615C7F4F062E672F000C661F770B02
S1130A80000C661F771F882777FD8095982F3BD72A
S1130A9020E030E044EB50E4C2D702D770939401D5
S1130AA06093930182E080939E010895E1DC823497
S1130AB091F58091970190919801992364F1209187
S1130AC00001309101012130310529F501979093FE
S1130AD0980180939701BC01992314F4615C7F4FC2
S1130AE0062E672F000C661F770B000C661F771FFE
S1130AF0882777FD8095982F06D720E030E044EBD7
S1130B0050E48DD7CDD6709394016093930184E023
S1130B1080939E010895ACDC8334A1F58091970104
S1130B2090919801813020E2920764F520910001B0
S1130B30309101012130310529F5019690939801F6
S1130B4080939701BC01992314F4615C7F4F062EB6
S1130B50672F000C661F770B000C661F771F882712
S1130B6077FD8095982FCFD620E030E044EB50E419
S1130B7056D796D6709394016093930182E0809344
S1130B809E01089510928E0110928D0110929E0183
S1130B90089580918B0190918C018130910599F594
S1130BA0809197019091980199230CF461C0209150
S1130BB0000130910101232B09F05AC00197909351
S1130BC0980180939701BC01992314F4615C7F4FD1
S1130BD0062E672F000C661F770B000C661F771F0D
S1130BE0882777FD8095982F8ED620E030E044EB5F
S1130BF050E415D755D6709394016093930185E022
S1130C0080939E010895029799F5809197019091A0
S1130C109801813020E292075CF520910001309127
S1130C200101232B29F50196909398018093970154
S1130C30BC01992314F4615C7F4F062E672F000CCE
S1130C40661F770B000C661F771F882777FD80953A
S1130C50982F59D620E030E044EB50E4E0D620D67B
S1130C60709394016093930183E080939E010895AF
S1130C70FFDB823491F5809197019091980199233B
S1130C8064F120910001309101012130310529F5F1
S1130C9001979093980180939701BC01992314F4D0
S1130CA0615C7F4F062E672F000C661F770B000CCC
S1130CB0661F771F882777FD8095982F24D620E01C
S1130CC030E044EB50E4ABD6EBD5709394016093E1
S1130CD0930185E080939E010895CADB8334A1F5D6
S1130CE08091970190919801813020E2920764F5F8
S1130CF020910001309101012130310529F501963F
S1130D009093980180939701BC01992314F4615C3A
S1130D107F4F062E672F000C661F770B000C661F93
S1130D20771F882777FD8095982FEDD520E030E058
S1130D3044EB50E474D6B4D570939401609393015A
S1130D4083E080939E01089510928E0110928D018C
S1130D5010929E01089580918B0190918C018130B5
S1130D60910599F5809197019091980199230CF43C
S1130D7061C02091000130910101232B09F05AC078
S1130D8001979093980180939701BC01992314F4DF
S1130D90615C7F4F062E672F000C661F770B000CDB
S1130DA0661F771F882777FD8095982FACD520E0A4
S1130DB030E044EB50E433D673D5709394016093E0
S1130DC0930186E080939E010895029799F580919E
S1130DD0970190919801813020E292075CF520916F
S1130DE0000130910101232B29F50196909398017C
S1130DF080939701BC01992314F4615C7F4F062E04
S1130E00672F000C661F770B000C661F771F88275F
S1130E1077FD8095982F77D520E030E044EB50E4BF
S1130E20FED53ED5709394016093930184E0809342
S1130E309E0108951DDB823491F580919701909174
S1130E409801992364F1209100013091010121302E
S1130E50310529F501979093980180939701BC017E
S1130E60992314F4615C7F4F062E672F000C661FD4
S1130E70770B000C661F771F882777FD8095982FC6
S1130E8042D520E030E044EB50E4C9D509D5709355
S1130E9094016093930186E080939E010895E8DABB
S1130EA08334A1F58091970190919801813020E2DB
S1130EB0920764F520910001309101012130310540
S1130EC029F501969093980180939701BC01992389
S1130ED014F4615C7F4F062E672F000C661F770B9E
S1130EE0000C661F771F882777FD8095982F0BD5F8
S1130EF020E030E044EB50E492D5D2D470939401D6
S1130F006093930184E080939E01089510928E0172
S1130F1010928D0110929E01089580918B01909101
S1130F208C018130910599F58091970190919801F8
S1130F3099230CF461C02091000130910101232B0D
S1130F4009F05AC001979093980180939701BC01CE
S1130F50992314F4615C7F4F062E672F000C661FE3
S1130F60770B000C661F771F882777FD8095982FD5
S1130F70CAD420E030E044EB50E451D591D47093CE
S1130F8094016093930187E080939E0108950297F2
S1130F9099F58091970190919801813020E2920710
S1130FA05CF52091000130910101232B29F5019674
S1130FB09093980180939701BC01992314F4615C88
S1130FC07F4F062E672F000C661F770B000C661FE1
S1130FD0771F882777FD8095982F95D420E030E0FF
S1130FE044EB50E41CD55CD470939401609393015A
S1130FF085E080939E0108953BDA823491F58091D7
S1131000970190919801992364F120910001309106
S113101001012130310529F50197909398018093BE
S11310209701BC01992314F4615C7F4F062E672F4E
S1131030000C661F770B000C661F771F882777FD4F
S11310408095982F60D420E030E044EB50E4E7D45E
S113105027D4709394016093930187E080939E0159
S1131060089506DA8334A1F580919701909198014F
S1131070813020E2920764F5209100013091010152
S11310802130310529F501969093980180939701B9
S1131090BC01992314F4615C7F4F062E672F000C6A
S11310A0661F770B000C661F771F882777FD8095D6
S11310B0982F29D420E030E044EB50E4B0D4F0D3AE
S11310C0709394016093930185E080939E01089549
S11310D010928E0110928D0110929E0108958091BC
S11310E08B0190918C018130910599F58091970144
S11310F09091980199230CF461C0209100013091E2
S11311000101232B09F05AC0019790939801809311
S11311109701BC01992314F4615C7F4F062E672F5D
S1131120000C661F770B000C661F771F882777FD5E
S11311308095982FE8D320E030E044EB50E46FD45E
S1131140AFD3709394016093930188E080939E01E0
S11311500895029799F580919701909198018130B3
S113116020E292075CF52091000130910101232BCC
S113117029F501969093980180939701BC019923D6
S113118014F4615C7F4F062E672F000C661F770BEB
S1131190000C661F771F882777FD8095982FB3D39F
S11311A020E030E044EB50E43AD47AD370939401D5
S11311B06093930186E080939E01089559D9823407
S11311C091F58091970190919801992364F1209170
S11311D00001309101012130310529F501979093E7
S11311E0980180939701BC01992314F4615C7F4FAB
S11311F0062E672F000C661F770B000C661F771FE7
S1131200882777FD8095982F7ED320E030E044EB4B
S113121050E405D445D3709394016093930188E01E
S113122080939E01089524D98334A1F58091970178
S113123090919801813020E2920764F52091000199
S1131240309101012130310529F5019690939801DF
S113125080939701BC01992314F4615C7F4F062E9F
S1131260672F000C661F770B000C661F771F8827FB
S113127077FD8095982F47D320E030E044EB50E48D
S1131280CED30ED3709394016093930186E0809340
S11312909E01089510928E0110928D0110929E016C
S11312A0089580918B0190918C018130910599F57D
S11312B0809197019091980199230CF461C0209139
S11312C0000130910101232B09F05AC0019790933A
S11312D0980180939701BC01992314F4615C7F4FBA
S11312E0062E672F000C661F770B000C661F771FF6
S11312F0882777FD8095982F06D320E030E044EBD3
S113130050E48DD3CDD2709394016093930181E026
S113131080939E010895029799F580919701909189
S11313209801813020E292075CF520910001309110
S11313300101232B29F5019690939801809397013D
S1131340BC01992314F4615C7F4F062E672F000CB7
S1131350661F770B000C661F771F882777FD809523
S1131360982FD1D220E030E044EB50E458D398D207
S1131370709394016093930187E080939E01089594
S113138077D8823491F580919701909198019923AF
S113139064F120910001309101012130310529F5DA
S11313A001979093980180939701BC01992314F4B9
S11313B0615C7F4F062E672F000C661F770B000CB5
S11313C0661F771F882777FD8095982F9CD220E091
S11313D030E044EB50E423D363D2709394016093E0
S11313E0930181E080939E01089542D88334A1F54E
S11313F08091970190919801813020E2920764F5E1
S113140020910001309101012130310529F5019627
S11314109093980180939701BC01992314F4615C23
S11314207F4F062E672F000C661F770B000C661F7C
S1131430771F882777FD8095982F65D220E030E0CC
S113144044EB50E4ECD22CD270939401609393015A
S113145087E080939E01089510928E0110928D0171
S113146010929E01089510929E010895181619066F
S11314709CF440E050E077E063E00BC000002150B2
S1131480310921153105D1F74F5F5F4F48175907CF
S113149019F0272F362FF2CF089516988BB9179A83
S11314A00000179882E090E0E1CF089581E0F5CF45
S11314B0089584E690E0DADF88E3EFDF86E0EDDF8D
S11314C08FE0EBDF81E0E9DF8AE090E0CFCF0895A1
S11314D0169A8BB9179A0000179881E090E0C6CF4E
S11314E00895813118F48158D8CF08958155D5CF06
S11314F008950F931F93CF93DF93182FEB01D6DF3B
S11315008881882359F001E0010F812FEADF899156
S1131510DFDF8881882311F0102FF5CFDF91CF9181
S11315201F910F910895462F50E066E071E0E0D2DC
S113153066E071E081E0DDCF0895CF93DF93C09141
S11315407800D09179008091A30181119DC00E94FF
S113155038028A3219F46AE0CE01E5DF0E943802CB
S1131560843491F480918F0190919001892B61F4DE
S11315708FE1B7DF81E3ACDF80E1B3DF81E090E0AE
S113158090939201809391010E943802833291F4E6
S113159080918F0190919001892B61F48FE1A1DFFB
S11315A082E396DF80E19DDF82E090E090939201F8
S11315B0809391010E9438028133F9F48091910162
S11315C0909192010197C9F481E090E09093900189
S11315D080938F018091A801823331F467DF6CE03E
S11315E071E081E086DF07C0813329F45FDF6BE1BE
S11315F071E081E07EDF80E174DF0E943802813394
S1131600F9F480919101909192010297C9F481E0DB
S113161090E09093900180938F018091A801823390
S113162031F444DF6BE271E081E063DF07C08133B2
S113163029F43CDF6AE371E081E05BDF80E151DFA4
S11316400E943802823301F580918F0190919001BC
S11316500197D1F41092900110928F018091910121
S1131660909192018130910539F46AE471E081E04E
S113167040DF80E136DF08C0029731F46AE671E0AA
S113168081E037DF80E12DDF8091A3018111109289
S1131690A301DF91CF91089580E484B98CB5806C67
S11316A08CBD8FB780688FBF08951F920F920FB6BD
S11316B00F9211248F938EB58093A6018F910F9072
S11316C00FBE0F901F901895CF93DF93CDB7DEB761
S11316D0AC970FB6F894DEBF0FBECDBFEFEFE1B904
S11316E012B8E4B915B880EF87B9E8B9EAB91BB8FC
S11316F084E080939901CE0101969093A201809396
S1131700A101E9838EE190E0A0E0B0E08A839B83AD
S1131710AC83BD838E839F83A887B98728E730E095
S11317203B872A87EC8746E950E060E070E04D870C
S11317305E876F87788B498B5A8B6B8B7C8B2DE9FB
S11317403AE03E8B2D8BEF8B0F2EF3E0CF2ED12C76
S1131750E12CF12CF02DC88ED98EEA8EFB8ECC8E26
S1131760DD8EEE8EFF8E26E832E039A328A3EAA3AD
S11317708BA39CA3ADA3BEA38FA398A7A9A7BAA725
S113178089E890E09CA78BA787DF10929E011092B6
S11317909F011092A3018DDE89DE6AE471E081E08D
S11317A0A8DE80E19EDE1092A901C0920201D092CF
S11317B00301E0920401F0920501C0929A01D092D3
S11317C09B01E0929C01F0929D010E941402FFCFC4
S11317D00CD0EBC0E3D040F0DAD030F021F45F3F1E
S11317E019F0CCC0511115C1CFC0F0D098F3992392
S11317F0C9F35523B1F3951B550BBB27AA276217D1
S11318007307840738F09F5F5F4F220F331F441F15
S1131810AA1FA9F333D00E2E3AF0E0E830D091504D
S11318205040E695001CCAF729D0FE2F27D0660F3A
S1131830771F881FBB1F261737074807AB07B0E879
S113184009F0BB0B802DBF01FF2793585F4F2AF08F
S11318509E3F510568F092C0DCC05F3FECF3983EB8
S1131860DCF3869577956795B795F7959F5FC9F7EC
S1131870880F911D9695879597F90895E1E0660F75
S1131880771F881FBB1F621773078407BA0720F0EE
S1131890621B730B840BBA0BEE1F88F7E095089557
S11318A004D06894B111B5C0089598D088F09F57BA
S11318B090F0B92F9927B751A0F0D1F0660F771F98
S11318C0881F991F1AF0BA95C9F712C0B13081F078
S11318D09FD0B1E008959CC0672F782F8827B85F08
S11318E039F0B93FCCF3869577956795B395D9F7D9
S11318F03EF490958095709561957F4F8F4F9F4FE3
S11319000895E89409C097FB3EF4909580957095EE
S113191061957F4F8F4F9F4F9923A9F0F92F96E937
S1131920BB279395F695879577956795B795F111AC
S1131930F8CFFAF4BB0F11F460FF1BC06F5F7F4F49
S11319408F4F9F4F16C0882311F096E911C077235B
S113195021F09EE8872F762F05C0662371F096E864
S1131960862F70E060E02AF09A95660F771F881F33
S1131970DAF7880F9695879597F9089597F99F67F1
S113198080E870E060E008959FEF80EC0895002403
S11319900A941616170618060906089500240A94D0
S11319A012161306140605060895092E0394000C56
S11319B011F4882352F0BB0F40F4BF2B11F460FFE5
S11319C004C06F5F7F4F8F4F9F4F089557FD90580E
S11319D0440F551F59F05F3F71F04795880F97FBEF
S11319E0991F61F09F3F79F08795089512161306A9
S11319F01406551FF2CF4695F1DF08C016161706D8
S1131A001806991FF1CF869571056105089408950C
S1131A10E894BB2766277727CB0197F908950BD065
S1131A20C4CFB5DF28F0BADF18F0952309F0A6CFAC
S1131A30ABCF1124EECFCADFA0F3959FD1F3950F5E
S1131A4050E0551F629FF001729FBB27F00DB11D3E
S1131A50639FAA27F00DB11DAA1F649F6627B00DCE
S1131A60A11D661F829F2227B00DA11D621F739FB7
S1131A70B00DA11D621F839FA00D611D221F749FC5
S1131A803327A00D611D231F849F600D211D822F0C
S1131A90762F6A2F11249F5750408AF0E1F0882353
S1131AA04AF0EE0FFF1FBB1F661F771F881F915060
S1131AB05040A9F79E3F510570F060CFAACF5F3F19
S1131AC0ECF3983EDCF3869577956795B795F79593
S1131AD0E7959F5FC1F7FE2B880F911D969587951B
S1131AE097F90895EE0FFF1F0590F491E02D0994E6
S1131AF04532510518F4423008F004C0FB0110824D
S1131B00CB010895BB274A3031F4992322F4BDE276
S1131B10909581959F4F01C0BB27FB015527AA27AC
S1131B20880F991FAA1FA41710F0A41B8395505166
S1131B30B9F7A05DAA3308F0A95DA193009779F7DE
S1131B40B111B1931192CB0100C0DC01FC01672FEC
S1131B5071917723E1F7329704C07C916D93708380
S1111B606291AE17BF07C8F30895F894FFCF43
S1131B6E01000100000030303030300057494E443F
S1131B7E4F5720313A204F50454E0057494E444F4F
S1131B8E5720313A20434C4F53450057494E444F4A
S1131B9E5720323A204F50454E0057494E444F5726
S1131BAE20323A20434C4F53450020202020202041
S1131BBE4D454E552020202020202053544154556D
S1131BCE533A20524F4F4D20310020202020202008
S1131BDE4D454E552020202020202053544154554D
S10D1BEE533A20524F4F4D203200AD
S9030000FC
